{
  "transactions": [
    {
      "hash": "0xeaece73e5d9df85959a094c43eec48c74719049f3cc2c88380ea025ada8d7376",
      "transactionType": "CALL",
      "contractName": null,
      "contractAddress": "0x78dcb012ba4562e3226169b45dd393ebbbc07637",
      "function": "grantRole(bytes32,address)",
      "arguments": [
        "0x73e573f9566d61418a34d5de3ff49360f9c51fec37f7486551670290f6285dab",
        "0x3E38b89e5832134f9Cd8351764Bb4A652BBcaB25"
      ],
      "transaction": {
        "from": "0x7043dc9619679b5d1a0262bfab10422948458988",
        "to": "0x78dcb012ba4562e3226169b45dd393ebbbc07637",
        "gas": "0x11427",
        "value": "0x0",
        "input": "0x2f2ff15d73e573f9566d61418a34d5de3ff49360f9c51fec37f7486551670290f6285dab0000000000000000000000003e38b89e5832134f9cd8351764bb4a652bbcab25",
        "nonce": "0x3a",
        "chainId": "0x14a34"
      },
      "additionalContracts": [],
      "isFixedGasLimit": false
    }
  ],
  "receipts": [
    {
      "status": "0x1",
      "cumulativeGasUsed": "0x54c5eb",
      "logs": [
        {
          "address": "0x78dcb012ba4562e3226169b45dd393ebbbc07637",
          "topics": [
            "0x2f8788117e7eff1d82e926ec794901d17c78024a50270940304540a733656f0d",
            "0x73e573f9566d61418a34d5de3ff49360f9c51fec37f7486551670290f6285dab",
            "0x0000000000000000000000003e38b89e5832134f9cd8351764bb4a652bbcab25",
            "0x0000000000000000000000007043dc9619679b5d1a0262bfab10422948458988"
          ],
          "data": "0x",
          "blockHash": "0xf3323bb0ab8b5822a8fa58c619ba7384fc9c28306a2addec3c6bec277c4887bb",
          "blockNumber": "0x2271d85",
          "blockTimestamp": "0x696199ea",
          "transactionHash": "0xeaece73e5d9df85959a094c43eec48c74719049f3cc2c88380ea025ada8d7376",
          "transactionIndex": "0x10",
          "logIndex": "0x39",
          "removed": false
        }
      ],
      "logsBloom": "0x00000004080008000000000000000000000000101000000000000000000000000000000000000000000000010000800000000000000000000000000000000000000000000000000000002000000000200000000000000000000000000000000000000000000000000000000000000000000000000000000000000000000000000000000000000000000000000000000000000000000000000000000000000000000000000000000100000000010000000000000000000000001000000000000000000000000000000000000000000000000000000000000100000000000000000000000000000000000000000000400000000000000000000000000000000080",
      "type": "0x2",
      "transactionHash": "0xeaece73e5d9df85959a094c43eec48c74719049f3cc2c88380ea025ada8d7376",
      "transactionIndex": "0x10",
      "blockHash": "0xf3323bb0ab8b5822a8fa58c619ba7384fc9c28306a2addec3c6bec277c4887bb",
      "blockNumber": "0x2271d85",
      "gasUsed": "0xc7ef",
      "effectiveGasPrice": "0x124f80",
      "blobGasUsed": "0x8130",
      "from": "0x7043dc9619679b5d1a0262bfab10422948458988",
      "to": "0x78dcb012ba4562e3226169b45dd393ebbbc07637",
      "contractAddress": null,
      "daFootprintGasScalar": "0x138",
      "l1BaseFeeScalar": "0x44d",
      "l1BlobBaseFee": "0x1145aa",
      "l1BlobBaseFeeScalar": "0xa118b",
      "l1Fee": "0x6f80fe0",
      "l1GasPrice": "0x131a811",
      "l1GasUsed": "0x6a4"
    }
  ],
  "libraries": [],
  "pending": [],
  "returns": {},
  "timestamp": 1768004073496,
  "chain": 84532,
  "commit": "27855d8"
}